00ROPC9999BOVESPA 99992016090520160905                                                                                                                          
01BRFS        ON      NM201609191724000080BRFSU53     000000010000000005329000000000000000000000000000000000000000008300000000000008300000000300000021162ACN    
01BRFS  FM    ON      NM201609191422000080BRFSU23     000000010000000005279000000000000000000000000000000000000000154000000000000154000000000200000011162ACN    
01BRFS  FM    ON      NM201609191732000080BRFSU54     000000010000000005429000000000000000000000000000000000000000002000000000000002000000000200000021162ACN    
01BRIN        ON      NM201609190175000080BRINU64     000000010000000002425000000000000000000000000000000000000000035000000000000035000000000100000011112ACN    
01BRIN        ON      NM201609190094000080BRINU55     000000010000000002550000000000000000000000000000000000000000035000000000000035000000000100000011112ACN    
01BRKM        PNA     N1201609191279000080BRKMU76     000000010000000001549000000000000000000000000025000000000000000100000000000025100000000100000021122ACN    
01BRKM        PNA     N1201609191287000080BRKMU19     000000010000000001774000000000000000000000000025000000000000000000000000000025000000000100000011122ACN    
01BRML        ON      NM201609190574000080BRMLU72     000000010000000001202000000000000000000000000082800000000000054100000000000136900000000200000041092ACN    
01BRML        ON      NM201609190922000080BRMLU62     000000010000000001252000000000000000000000000130000000000000025000000000000155000000000300000021092ACN    
01BRML        ON      NM201609190310000080BRMLU43     000000010000000001377000000000000000000000000000000000000000000100000000000000100000000100000011092ACN    
01BRML  FM    ON      NM201609190507000080BRMLU61     000000010000000001177000000000000000000000000130000000000000025000000000000155000000000200000021092ACN    
01BRML  FM    ON      NM201609190515000080BRMLU52     000000010000000001227000000000000000000000000000000000000000031000000000000031000000000100000011092ACN    
01BRML  FM    ON      NM201609190299000080BRMLU42     000000010000000001277000000000000000000000000050900000000000607400000000000658300000000400000091092ACN    
01BRML  FM    ON      NM201609190302000080BRMLU13     000000010000000001327000000000000000000000000000000000000000000700000000000000700000000100000031092ACN    
01BVMF        ON      NM201609190981000080BVMFU61     000000010000000001107000000000000000000000000050000000000000000000000000000050000000000100000011362ACN    
01BVMF        ON      NM201609191465000080BVMFU12     000000010000000001182000000000000000000000000055000000000000000000000000000055000000000100000011362ACN    
01BVMF        ON      NM201609190990000080BVMFU13     000000010000000001282000000000000000000000000050000000000000000000000000000050000000000100000011362ACN    
01BVMF        ON      NM201609191473000080BVMFU44     000000010000000001432000000000000000000000000096200000000000000000000000000096200000000200000021362ACN    
01BVMF        ON      NM201609192100000080BVMFU86     000000010000000001607000000000000000000000000021100000000000007200000000000028300000000500000061362ACN    
01BVMF        ON      NM201609191481000080BVMFU66     000000010000000001657000000000000000000000000000000000000000021800000000000021800000000300000061362ACN    
01BVMF        ON      NM201609192119000080BVMFU89     000000010000000001957000000000000000000000000000000000000000002000000000000002000000000100000011362ACN    
01BVMF        ON      NM201609190094000080BVMFU15     000000010000000001532000000000000000000000000576200000000000896500000000001472700000000500000041372ACN    
01BVMF        ON      NM201609190116000080BVMFU16     000000010000000001632000000000000000000000000141400000000000035200000000000176600000000600000141372ACN    
01BVMF        ON      NM201609190965000080BVMFU67     000000010000000001707000000000000000000000000056300000000000013700000000000070000000000600000101372ACN    
01BVMF        ON      NM201609190973000080BVMFU68     000000010000000001807000000000000000000000000022000000000000060900000000000082900000000500000171372ACN    
01BVMF        ON      NM201609191341000080BVMFU78     000000010000000001857000000000000000000000000000000000000000036000000000000036000000000300000041372ACN    
01BVMF        ON      NM201609190167000080BVMFU48     000000010000000001882000000000000000000000000029900000000000066300000000000096200000000700000141372ACN    
01BVMF        ON      NM201609191333000080BVMFU79     000000010000000001907000000000000000000000000000500000000000000500000000000001000000000100000021372ACN    
01BVMF        ON      NM201609190175000080BVMFU19     000000010000000001932000000000000000000000000073800000000000038800000000000112600000000800000071372ACN    
01BVMF        ON      NM201609190183000080BVMFU49     000000010000000001982000000000000000000000000000000000000000105200000000000105200000000300000071372ACN    
01BVMF        ON      NM201609190892000080BVMFU80     000000010000000002007000000000000000000000000005000000000000002500000000000007500000000200000031372ACN    
01BVMF        ON      NM201609190191000080BVMFU20     000000010000000002032000000000000000000000000000000000000000005000000000000005000000000200000011372ACN    
01BVMF        ON      NM201609190205000080BVMFU50     000000010000000002082000000000000000000000000004500000000000003000000000000007500000000100000021372ACN    
01BVMF        ON      NM201609190213000080BVMFU21     000000010000000002132000000000000000000000000000000000000000002000000000000002000000000100000011372ACN    
01BVMF        ON      NM201609190221000080BVMFU51     000000010000000002182000000000000000000000000000000000000000001500000000000001500000000200000011372ACN    
01BVMF  FM    ON      NM201609190124000080BVMFU46     000000010000000001682000000000000000000000000189800000000000015900000000000205700000000600000161372ACN    
01BVMF  FM    ON      NM201609190132000080BVMFU17     000000010000000001732000000000000000000000000051600000000000106500000000000158100000002100000211372ACN    
01BVMF  FM    ON      NM201609190140000080BVMFU47     000000010000000001782000000000000000000000000103200000000000157600000000000260800000001700000311372ACN    
01BVMF  FM    ON      NM201609190159000080BVMFU18     000000010000000001832000000000000000000000000000500000000000191700000000000192200000000900000241372ACN    
01CCRO        ON      NM201609190639000080CCROU94     000000010000000001368000000000000000000000000000000000000000000100000000000000100000000100000011262ACN    
01CCRO        ON      NM201609191619000080CCROU75     000000010000000001543000000000000000000000000024100000000000000000000000000024100000000100000011292ACN    
01CCRO        ON      NM201609192160000080CCROU85     000000010000000001593000000000000000000000000022500000000000000000000000000022500000000100000011292ACN    
01CCRO        ON      NM201609191171000080CCROU16     000000010000000001618000000000000000000000000000000000000000100000000000000100000000000100000011292ACN    
01VIVT        PN        201609190051000070VIVTI78     000000010000000004647000000000000700000000000000000000000000002400000000000003100000000200000041222ACN    
01VIVT        PN        201609190302000070VIVTI17     000000010000000004772000000000001500000000000000000000000000199100000000000200600000000300000061301ACN    
01VIVT        PN        201609190388000070VIVTI15     000000010000000004572000000000000800000000000000000000000000000000000000000000800000000100000011311ACN    
01VIVT        PN        201609190477000070VIVTI50     000000010000000005047000000000000000000000000000000000000002900000000000002900000000000300000111311ACN    
01VIVT  FM    PN        201609190400000070VIVTI18     000000010000000004872000000000000500000000000000000000000000009000000000000009500000000200000041311ACN    
01VIVT  FM    PN        201609190485000070VIVTI51     000000010000000005147000000000001000000000000000000000000000000000000000000001000000000100000011311ACN    
01WEGE        ON      NM201609190221000070WEGEI96     000000010000000001617000000000000000000000000000000000000000020300000000000020300000000100000021681ACN    
01WEGE        ON      NM201609190035000070WEGEI14     000000010000000001417000000000000000000000000000000000000000200000000000000200000000000100000011731ACN    
01ABEV        ON        201610170990000070ABEVJ68     000000010000000001798000000000000000000000000098000000000000000000000000000098000000000100000121091ACN    
01ABEV        ON        201610171007000070ABEVJ98     000000010000000001823000000000000000000000000000000000000000149500000000000149500000000200000051092ACN    
01ABEV        ON        201610171015000070ABEVJ89     000000010000000001848000000000000800000000000000000000000000000000000000000000800000000100000011091ACN    
01ABEV        ON        201610171023000070ABEVJ82     000000010000000002223000000000080000000000000098000000000000008000000000000186000000001500000031092ACN    
01ABEV        ON        201610171031000070ABEVJ73     000000010000000002273000000000000000000000000100000000000000000000000000000100000000000100000011092ACN    
01ABEV        ON        201610170116000070ABEVJ79     000000010000000001873000000000000000000000000000000000000000040000000000000040000000000100000011102ACN    
01ABEV        ON        201610170132000070ABEVJ99     000000010000000001923000000000001500000000000650000000000000000000000000000651500000000400000551102ACN    
01ABEV        ON        201610170167000070ABEVJ55     000000010000000002523000000000000000000000000314800000000000185200000000000500000000000800000011102ACN    
01ABEV        ON        201610172534000070ABEVJ67     000000010000000001723000000000000000000000000650000000000000000000000000000650000000005400000011122ACN    
01ABEV        ON        201610172275000070ABEVJ57     000000010000000001748000000000000000000000000098000000000000000000000000000098000000001200000011121ACN    
01ABEV        ON        201610172240000070ABEVJ77     000000010000000001773000000000000000000000000650000000000000000000000000000650000000000100000541122ACN    
01ABEV        ON        201610172577000070ABEVJ59     000000010000000001973000000000020300000000000850000000000000001800000000000872100000005700000061122ACN    
01ABEV        ON        201610170957000070ABEVJ60     000000010000000002023000000000058100000000000098000000000000351200000000000507300000000400000221122ACN    
01ABEV        ON        201610170043000070ABEVJ50     000000010000000002048000000000000000000000000010300000000001017700000000001028000000000600000081131ACN    
01ABEV        ON        201610170701000070ABEVJ61     000000010000000002123000000000000000000000000200000000000000000000000000000200000000000100000011132ACN    
01ABEV        ON        201610170051000070ABEVJ51     000000010000000002148000000000000000000000000000000000000000004000000000000004000000000200000011131ACN    
01ABEV        ON        201610170060000070ABEVJ52     000000010000000002248000000000000000000000000000000000000000005000000000000005000000000100000011131ACN    
01ABEV  FM    ON        201610170698000070ABEVJ69     000000010000000001898000000000004800000000000135100000000000395600000000000535500000000800000061111ACN    
01ABEV  FM    ON        201610172500000070ABEVJ49     000000010000000001948000000000012200000000000098000000000000141500000000000251700000000400000171121ACN    
01ABEV  FM    ON        201610172283000070ABEVJ20     000000010000000001998000000000025700000000000850000000000009102800000000009978500000002900000731121ACN    
01ABEV  FM    ON        201610172640000070ABEVJ21     000000010000000002098000000000003800000000000003900000000000909500000000000917200000000500000061121ACN    
01ABEV  FM    ON        201610172569000070ABEVJ22     000000010000000002198000000000000100000000000650000000000000311000000000000961100000007500000031121ACN    
01ALPA        PN      N1201610170019000070ALPAJ40     000000010000000001044000000000000000000000000000000000000000023500000000000023500000000100000012171ACN    
01ARZZ        ON      NM201610170027000070ARZZJ56     000000010000000002650000000000000000000000000000000000000000055700000000000055700000000100000021211ACN    
01ARZZ        ON      NM201610170078000070ARZZJ92     000000010000000003225000000000000000000000000000000000000000035000000000000035000000000100000011212ACN    
01BBAS        ON      NM201610170302000070BBASJ87     000000010000000001588000000000008300000000000004900000000000003200000000000016400000000200000052541ACN    
01BBAS        ON      NM201610170779000070BBASJ78     000000010000000001813000000000135000000000000003500000000000092500000000000231000000000400000052592ACN    
01BBAS        ON      NM201610171392000070BBASJ19     000000010000000001888000000000003600000000000004300000000000001300000000000009200000000200000042591ACN    
01BBAS        ON      NM201610170264000070BBASJ76     000000010000000001663000000000033000000000000000000000000000000000000000000033000000000100000012612ACN    
01BBAS        ON      NM201610170159000070BBASJ77     000000010000000001713000000000012700000000000001000000000000032000000000000045700000000300000092612ACN    
01BBAS        ON      NM201610170213000070BBASJ97     000000010000000001763000000000000000000000000004900000000000004900000000000009800000000100000012612ACN    
01BBAS        ON      NM201610170272000070BBASJ18     000000010000000001788000000000002900000000000000000000000000003800000000000006700000000200000072611ACN    
01BBAS        ON      NM201610170388000070BBASJ48     000000010000000001838000000000000000000000000019000000000000000000000000000019000000000100000012611ACN    
01BBAS        ON      NM201610171155000070BBASJ69     000000010000000001913000000000785000000000000000000000000000000800000000000785800000000200000022612ACN    
01BBAS        ON      NM201610170396000070BBASJ49     000000010000000001938000000000211000000000000000000000000000046000000000000257000000000300000072611ACN    
01BBAS        ON      NM201610170400000070BBASJ20     000000010000000001988000000000104000000000000000000000000000003500000000000107500000000600000062611ACN    
01BBAS        ON      NM201610170477000070BBASJ50     000000010000000002038000000000005000000000000006400000000000061600000000000073000000000300000082611ACN    
01KROT  FM    ON      NM201610170701000070KROTJ43     000000010000000001368000000000000800000000000000000000000000000000000000000000800000000100000011201ACN    
01KROT  FM    ON      NM201610170710000070KROTJ14     000000010000000001418000000000000200000000000000000000000000005700000000000005900000000400000031201ACN    
01KROT  FM    ON      NM201610170485000070KROTJ15     000000010000000001518000000000003000000000000000000000000000000000000000000003000000000300000021201ACN    
01KROT  FM    ON      NM201610170736000070KROTJ45     000000010000000001568000000000001000000000000000000000000000003900000000000004900000000200000021201ACN    
01LAME        ON        201610170140000070LAMEJ71     000000010000000001125000000000000000000000000000000000000000114000000000000114000000000100000011962ACN    
01LAME        PN        201610170108000070LAMEJ76     000000010000000001625000000000000000000000000000000000000000135000000000000135000000000100000011962ACN    
01LREN        ON      NM201610170159000070LRENJ52     000000010000000002276000000000000000000000000000000000000000128700000000000128700000000400000021811ACN    
01LREN        ON      NM201610170175000070LRENJ53     000000010000000002376000000000000000000000000000100000000000010800000000000010900000000100000011811ACN    
01LREN        ON      NM201610170230000070LRENJ27     000000010000000002726000000000000000000000000000000000000000011900000000000011900000000200000021811ACN    
01LREN        ON      NM201610170779000070LRENJ89     000000010000000002901000000000000000000000000000000000000000620000000000000620000000000100000021812ACN    
01LREN        ON      NM201610170434000070LRENJ79     000000010000000002951000000000000000000000000000000000000000020000000000000020000000000100000011812ACN    
01LREN        ON      NM201610170280000070LRENJ59     000000010000000002976000000000000000000000000000000000000000019000000000000019000000000100000011811ACN    
01LREN  FM    ON      NM201610170345000070LRENJ25     000000010000000002476000000000000300000000000000000000000000038000000000000038300000000200000051791ACN    
01LREN  FM    ON      NM201610170205000070LRENJ55     000000010000000002576000000000000000000000000000000000000000014200000000000014200000000100000011811ACN    
01LREN  FM    ON      NM201610170221000070LRENJ56     000000010000000002676000000000000000000000000000000000000000004600000000000004600000000100000011811ACN    
01LREN  FM    ON      NM201610170248000070LRENJ57     000000010000000002776000000000000000000000000000000000000000036100000000000036100000000200000021811ACN    
01MDIA        ON      NM201610170230000070MDIAJ1      000000010000000009897000000000000000000000000004000000000000000000000000000004000000000100000011101ACN    
01MDIA        ON      NM201610170078000070MDIAJ29     000000010000000012997000000000000000000000000000000000000000005700000000000005700000000100000021121ACN    
01MDIA        ON      NM201610170060000070MDIAJ37     000000010000000013797000000000000000000000000000000000000000050000000000000050000000000100000021121ACN    
01MRVE        ON      NM201610170035000070MRVEJ12     000000010000000001200000000000000000000000000000000000000000380000000000000380000000000100000021111ACN    
01MULT        ON      N2201610170400000070MULTJ64     000000010000000006357000000000000000000000000000000000000000050000000000000050000000000100000011151ACN    
01MULT        ON      N2201610170060000070MULTJ10     000000010000000006007000000000000000000000000000000000000000155500000000000155500000000100000231162ACN    
01MULT        ON      N2201610170043000070MULTJ60     000000010000000006057000000000000000000000000000000000000000154400000000000154400000000200000021161ACN    
01MYPK        ON      NM201610170051000070MYPKJ44     000000010000000001450000000000000000000000000000000000000000125900000000000125900000000200000031401ACN    
01PCAR        PN      N1201610170698000070PCARJ10     000000010000000006033000000000000000000000000000000000000000000100000000000000100000000100000011462ACN    
01PCAR        PN      N1201610171902000070PCARJ47     000000010000000004733000000000090700000000000000000000000000200000000000000290700000000100000011471ACN    
01PCAR        PN      N1201610170051000070PCARJ98     000000010000000004858000000000000000000000000000000000000000218400000000000218400000000100000011482ACN    
01PCAR        PN      N1201610170159000070PCARJ53     000000010000000005383000000000000000000000000008000000000000000000000000000008000000000100000011481ACN    
01PCAR        PN      N1201610170167000070PCARJ59     000000010000000005983000000000000000000000000000000000000000030000000000000030000000000100000011481ACN    
01PETR        ON        201610173530000070PETRJ1      000000010000000001000000000000000000000000000000100000000000015100000000000015200000000100000021831ACN    
01PETR        ON        201610173743000070PETRJ4      000000010000000001200000000000000000000000000000000000000000000100000000000000100000000100000011831ACN    
01PETR        ON        201610173751000070PETRJ15     000000010000000001500000000000004000000000000006500000000000222300000000000232800000000800000191831ACN    
01PETR        ON        201610173964000070PETRJ38     000000010000000001675000000000003500000000000000000000000000000000000000000003500000000100000011832ACN    
01PETR        ON        201610173948000070PETRJ27     000000010000000001700000000000000000000000000000000000000001111200000000001111200000000400000031831ACN    
01PETR        PN        201610179121000070PETRJ64     000000010000000001075000000000015000000000000150500000000000000000000000000165500000000500000061842ACN    
01PETR        PN        201610179130000070PETRJ11     000000010000000001100000000000313300000000000043700000000000542700000000000899700000004700001041841ACN    
01PETR        PN        201610179148000070PETRJ65     000000010000000001125000000000002300000000000000300000000000001000000000000003600000000300000031842ACN    
01PETR        PN        201610179156000070PETRJ41     000000010000000001150000000000060700000000000013200000000000051400000000000125300000001100000181841ACN    
01PETR        PN        201610179164000070PETRJ66     000000010000000001175000000000012100000000001440200000000000009900000000001462200000000900000111842ACN    
01PETR        PN        201610179180000070PETRJ35     000000010000000001275000000000118500000000000471400000000000066700000000000656600000001600000191842ACN    
01PETR        PN        201610179199000070PETRJ36     000000010000000001325000000000028800000000000452500000000000693200000000001174500000000800000151842ACN    
01PETR        PN        201610179202000070PETRJ37     000000010000000001375000000000104100000000000504700000000000005100000000000613900000001400000151842ACN    
01PETR        PN        201610173930000070PETRJ67     000000010000000001750000000000003700000000000056600000000000640800000000000701100000001800000051841ACN    
01PETR        PN        201610179938000070PETRJ97     000000010000000001775000000000000000000000000003400000000000007600000000000011000000000200000031842ACN    
01ITSA    /ED PN      N1201611211139000070ITSAK94     000000010000000000819000000000000000000000000000000000000001640680000000001640680000000300000223641ACN    
01ITSA    /ED PN      N1201611210329000070ITSAK9      000000010000000000898000000000000300000000000000000000000000002000000000000002300000000300000023691ACN    
01ITSA    /ED PN      N1201611210833000070ITSAK70     000000010000000000694000000000000000000000000000000000000000101600000000000101600000000100000013701ACN    
01ITSA    /ED PN      N1201611210540000070ITSAK71     000000010000000000704000000000000000000000000000000000000000457600000000000457600000000100000013702ACN    
01ITSA    /ED PN      N1201611210477000070ITSAK73     000000010000000000724000000000000000000000000000000000000000702900000000000702900000000200000043702ACN    
01ITSA    /ED PN      N1201611210868000070ITSAK84     000000010000000000839000000000000000000000000000000000000000263100000000000263100000000100000033701ACN    
01ITSA    /ED PN      N1201611210485000070ITSAK86     000000010000000000858000000000000000000000000000000000000000217000000000000217000000000100000023701ACN    
01ITSA    /ED PN      N1201611210060000070ITSAK38     000000010000000000988000000000000000000000000000000000000000870000000000000870000000000100000023722ACN    
01ITUB    /ED PN      N1201611210493000070ITUBK84     000000010000000003303000000000143500000000000000000000000000000100000000000143600000000200000031972ACN    
01ITUB    /ED PN      N1201611210434000070ITUBK95     000000010000000003453000000000200000000000000147000000000000007000000000000354000000000300000031972ACN    
01ITUB    /ED PN      N1201611210442000070ITUBK86     000000010000000003503000000000204700000000002002200000000000001900000000002208800000000200000031972ACN    
01ITUB    /ED PN      N1201611210469000070ITUBK99     000000010000000003853000000000051100000000000000000000000000012000000000000063100000000100000031972ACN    
01ITUB    /ED PN      N1201611210256000070ITUBK69     000000010000000002803000000000000000000000000000000000000000230000000000000230000000000100000011982ACN    
01ITUB    /ED PN      N1201611210299000070ITUBK74     000000010000000003353000000000000000000000000000100000000000007000000000000007100000000100000021982ACN    
01ITUB    /ED PN      N1201611210337000070ITUBK35     000000010000000003478000000000000400000000000000000000000000007800000000000008200000000300000041981ACN    
01ITUB    /ED PN      N1201611210302000070ITUBK68     000000010000000003703000000000097000000000000600000000000000014900000000000711900000000300000051982ACN    
01ITUB    /ED PN      N1201611210124000070ITUBK11     000000010000000001003000000000000000000000000000000000000006050000000000006050000000000100000012012ACN    
01ITUB    /ED PN      N1201611210183000070ITUBK1      000000010000000003203000000000000000000000000000000000000000012200000000000012200000000100000012052ACN    
01ITUB    /ED PN      N1201611210213000070ITUBK27     000000010000000002678000000000002600000000000000000000000000000000000000000002600000000100000012061ACN    
01ITUB    /ED PN      N1201611210221000070ITUBK2      000000010000000003228000000000151900000000000000000000000000012000000000000163900000000100000022061ACN    
01ITUB    /ED PN      N1201611210230000070ITUBK7      000000010000000003728000000000000000000000000099800000000000002200000000000102000000000200000052061ACN    
01ITUB    /ED PN      N1201611210140000070ITUBK31     000000010000000003078000000000000000000000000000000000000000023000000000000023000000000100000012081ACN    
01ITUB    /ED ON      N1201611210078000070ITUBK55     000000010000000002529000000000000000000000000000000000000000058200000000000058200000000100000012091ACN    
01ITUB    /ED PN      N1201611210183000070ITUBK88     000000010000000002828000000000000000000000000000000000000000010600000000000010600000000100000032091ACN    
01ITUB    /ED PN      N1201611210205000070ITUBK59     000000010000000002928000000000000000000000000000000000000000005000000000000005000000000100000012091ACN    
01ITUB    /ED PN      N1201611210159000070ITUBK10     000000010000000002953000000000000000000000000000000000000000029200000000000029200000000100000012092ACN    
01ITUB    /ED PN      N1201611210035000070ITUBK80     000000010000000003053000000000000000000000000000000000000000033200000000000033200000000200000032092ACN    
01ITUB    /ED PN      N1201611210248000070ITUBK32     000000010000000003178000000000107000000000000000000000000000000000000000000107000000000200000012091ACN    
01ITUB    /ED PN      N1201611210256000070ITUBK33     000000010000000003278000000000175300000000000000000000000000003500000000000178800000000200000022091ACN    
01ITUB    /ED PN      N1201611210264000070ITUBK13     000000010000000003328000000000011700000000000000000000000000000000000000000011700000000100000012091ACN    
01ITUB    /ED PN      N1201611210272000070ITUBK24     000000010000000003378000000000374100000000000000000000000000000000000000000374100000000200000012091ACN    
01ITUB    /ED PN      N1201611210280000070ITUBK12     000000010000000003428000000000000000000000000000000000000000014000000000000014000000000100000012091ACN    
01ITUB    /ED PN      N1201611210299000070ITUBK25     000000010000000003528000000000005300000000000000000000000000000000000000000005300000000100000012091ACN    
01ITUB    /ED PN      N1201611210302000070ITUBK26     000000010000000003578000000000100000000000000000000000000000003100000000000103100000000200000022091ACN    
01ITUB    /ED PN      N1201611210310000070ITUBK16     000000010000000003628000000000000100000000000000000000000000000100000000000000200000000100000022091ACN    
01ITUB    /ED PN      N1201611210329000070ITUBK37     000000010000000003678000000000002500000000000297400000000000000100000000000300000000000100000042091ACN    
01ITUB    /ED PN      N1201611210337000070ITUBK38     000000010000000003778000000000030300000000000000000000000000005800000000000036100000000100000052091ACN    
01ITUB    /ED PN      N1201611210345000070ITUBK18     000000010000000003828000000000010000000000000000000000000000000200000000000010200000000100000022091ACN    
01ITUB    /ED PN      N1201611210353000070ITUBK39     000000010000000003878000000000008500000000000000000000000000000300000000000008800000000100000032091ACN    
01ITUB    /ED PN      N1201611210361000070ITUBK19     000000010000000003928000000000020000000000000000000000000000000100000000000020100000000100000022091ACN    
01ITUB    /ED PN      N1201611210370000070ITUBK40     000000010000000003978000000000021300000000000300000000000000050400000000000371700000000200000072091ACN    
01ITUB    /ED PN      N1201611210205000070ITUBK20     000000010000000003103000000000147000000000000000000000000000000000000000000147000000000300000012102ACN    
01ITUB    /ED PN      N1201612190248000070ITUBL84     000000010000000003350000000000003500000000000837100000000000014100000000000854700000000400000061982ACN    
01ITUB    /ED PN      N1201612190116000070ITUBL81     000000010000000002716000000000000000000000000400000000000000002300000000000402300000000200000031991ACN    
01ITUB    /ED PN      N1201612190051000070ITUBL61     000000010000000002791000000000062800000000000100000000000000000000000000000162800000000100000021992ACN    
01ITUB    /ED PN      N1201612190132000070ITUBL83     000000010000000003325000000000000000000000000005900000000000009800000000000015700000000300000061991ACN    
01ITUB    /ED PN      N1201612198001000070ITUBL75     000000010000000003375000000000000000000000000000000000000000003500000000000003500000000200000021991ACN    
01ITUB    /ED PN      N1201612190078000070ITUBL93     000000010000000003498000000000000000000000000094600000000000000000000000000094600000000200000021992ACN    
01ITUB    /ED PN      N1201612190205000070ITUBL2      000000010000000003116000000000000000000000000000000000000000016100000000000016100000000300000032001ACN    
01ITUB    /ED PN      N1201612190191000070ITUBL92     000000010000000003141000000000001900000000000003700000000000006600000000000012200000000300000042002ACN    
01ITUB    /ED PN      N1201612190140000070ITUBL82     000000010000000003191000000000000000000000000000000000000000001800000000000001800000000200000012002ACN    
01ITUB    /ED PN      N1201612190078000070ITUBL15     000000010000000003275000000000000000000000000000000000000000003700000000000003700000000500000022001ACN    
01ITUB    /ED PN      N1201612190060000070ITUBL79     000000010000000003425000000000000000000000000063000000000000000000000000000063000000000100000042001ACN    
01ITUB    /ED PN      N1201612190043000070ITUBL97     000000010000000003648000000000000000000000000038200000000000026100000000000064300000000300000082002ACN    
01ITUB    /ED PN      N1201612190566000070ITUBL23     000000010000000002250000000000000000000000000200000000000000000000000000000200000000000200000012011ACN    
01ITUB    /ED PN      N1201612190418000070ITUBL85     000000010000000002484000000000000000000000000000000000000000100000000000000100000000000100000012011ACN    
01ITUB    /ED PN      N1201612190540000070ITUBL29     000000010000000002816000000000000000000000000000000000000000001600000000000001600000000100000012011ACN    
01ITUB    /ED PN      N1201612190175000070ITUBL59     000000010000000002866000000000058200000000000000000000000000060700000000000118900000000100000082011ACN    
01ITUB    /ED PN      N1201612190418000070ITUBL62     000000010000000003166000000000000000000000000029800000000000000000000000000029800000000100000012041ACN    
01ITUB    /ED PN      N1201612190973000070ITUBL60     000000010000000003973000000000000400000000000073700000000000147900000000000222000000000300000052041ACN    
01ITUB    /ED PN      N1201612190523000070ITUBL11     000000010000000004073000000000006400000000000000000000000001006200000000001012600000000300000092041ACN    
01ITUB    /ED PN      N1201612191023000070ITUBL21     000000010000000004123000000000000000000000000100000000000000000000000000000100000000000100000012041ACN    
01ITUB    /ED PN      N1201612190426000070ITUBL52     000000010000000004173000000000000000000000002050100000000001126300000000003176400000000400000112041ACN    
01ITUB    /ED PN      N1201612190965000070ITUBL44     000000010000000004373000000000000000000000000300000000000000000000000000000300000000000100000012041ACN    
01ITUB    /ED PN      N1201612190094000070ITUBL30     000000010000000002966000000000000000000000000000000000000000008900000000000008900000000200000032051ACN    
01ITUB    /ED PN      N1201612190159000070ITUBL70     000000010000000002991000000000000000000000000000000000000000001100000000000001100000000100000012052ACN    
01ITUB    /ED PN      N1201612190256000070ITUBL3      000000010000000003473000000000000000000000000016000000000000011000000000000027000000000300000032051ACN    
01ITUB    /ED PN      N1201612190167000070ITUBL6      000000010000000003598000000000050000000000000000000000000000104600000000000154600000000300000052052ACN    
01ITUB    /ED PN      N1201612190264000070ITUBL37     000000010000000003673000000000000600000000000000000000000000006900000000000007500000000200000022051ACN    
01ITUB    /ED PN      N1201612198010000070ITUBL8      000000010000000003798000000000000000000000000010000000000000354100000000000364100000000200000102052ACN    
01ITUB    /ED PN      N1201612190108000070ITUBL4      000000010000000003041000000000002000000000000000000000000000000000000000000002000000000100000012062ACN    
01ITUB    /ED PN      N1201612190027000070ITUBL77     000000010000000003698000000000215000000000000000000000000000630000000000000845000000000400000092062ACN    
01ITUB    /ED PN      N1201612190205000070ITUBL38     000000010000000003773000000000000000000000000015400000000000000000000000000015400000000100000012061ACN    
01ITUB    /ED PN      N1201612190213000070ITUBL55     000000010000000002534000000000004000000000000000000000000000003100000000000007100000000200000022071ACN    
01ITUB    /ED PN      N1201612190027000070ITUBL5      000000010000000003216000000000000000000000000000000000000000200000000000000200000000000200000012071ACN    
01ITUB    /ED PN      N1201612190060000070ITUBL34     000000010000000003400000000000000000000000000000000000000000007000000000000007000000000100000012072ACN    
01ITUB    /ED PN      N1201612190400000070ITUBL76     000000010000000003623000000000000000000000000000000000000000033000000000000033000000000100000012081ACN    
01ITUB    /ED ON      N1201612190019000070ITUBL14     000000010000000002540000000000000000000000000000000000000000024600000000000024600000000100000022092ACN    
01JBSS        ON      NM201612192410000070JBSSL13     000000010000000001259000000000000000000000000022300000000000654300000000000676600000000700000051101ACN    
01JBSS        ON      NM201612190353000070JBSSL30     000000010000000001034000000000000000000000000000000000000000022300000000000022300000000100000011112ACN    
01JBSS        ON      NM201612190361000070JBSSL32     000000010000000001234000000000000000000000000000000000000000051000000000000051000000001000000021112ACN    
01JBSS        ON      NM201612190639000070JBSSL63     000000010000000001334000000000000000000000000000000000000000028300000000000028300000000300000021112ACN    
01BRFS        ON      NM201702202933000070BRFSB28     000000010000000005722000000000000000000000000030000000000000000000000000000030000000000100000011142ACN    
01BRFS        ON      NM201702202941000070BRFSB37     000000010000000006622000000000000000000000000060000000000000000000000000000060000000000100000011142ACN    
01PETR        PN        201704177374000070PETRD64     000000010000000001425000000000000000000000000020000000000000000000000000000020000000000100000011852ACN    
01PETR        PN        201704177188000070PETRD69     000000010000000001475000000000100000000000000000000000000000084000000000000184000000000100000021852ACN    
01PETR        PN        201704170272000070PETRD86     000000010000000001625000000000000000000000000000000000000000025000000000000025000000000100000011862ACN    
01RUMO        ON      NM201704171104000070RUMOD76     000000010000000000760000000000000000000000000013800000000000000000000000000013800000000100000011021ACN    
01RUMO        ON      NM201704171112000070RUMOD10     000000010000000001000000000000000000000000000013800000000000000000000000000013800000000100000011021ACN    
01SUZB        PNA     N1201704171821000070SUZBD65     000000010000000001497000000000000000000000000000000000000000008000000000000008000000000100000011222ACN    
01UGPA        ON      NM201704170566000070UGPAD11     000000010000000008020000000000000000000000000000000000000000052000000000000052000000000100000011371ACN    
01UGPA        ON      NM201704171201000070UGPAD22     000000010000000008170000000000000000000000000000000000000000030000000000000030000000000100000011372ACN    
01USIM        PNA     N1201704170736000070USIMD45     000000010000000000450000000000000000000000000000000000000000000300000000000000300000000100000011571ACN    
01VALE        ON      N1201704170108000070VALED78     000000010000000001875000000000000000000000000000000000000000000100000000000000100000000100000011912ACN    
01VALE        PNA     N1201704173352000070VALED63     000000010000000001375000000000001700000000000000000000000000000000000000000001700000000100000011922ACN    
01VALE        PNA     N1201704173727000070VALED68     000000010000000001825000000000003300000000000000300000000000000800000000000004400000000200000041922ACN    
01VALE        PNA     N1201704175398000070VALED19     000000010000000001900000000000000000000000000200000000000000200000000000000400000000000100000021921ACN    
01VALE        PNA     N1201704173514000070VALED89     000000010000000001925000000000000000000000000000000000000000004800000000000004800000000100000011922ACN    
01VALE        PNA     N1201704173620000070VALED60     000000010000000002025000000000000000000000000080000000000000000000000000000080000000000100000011922ACN    
01VALE        PNA     N1201704173670000070VALED61     000000010000000002125000000000000000000000000007000000000000000000000000000007000000000100000011922ACN    
01VIVT        PN        201704170531000070VIVTD94     000000010000000005335000000000000000000000000000000000000000000100000000000000100000000100000011272ACN    
01VIVT        PN        201704170655000070VIVTD92     000000010000000005435000000000000000000000000000000000000000012000000000000012000000000100000011272ACN    
01WEGE        ON      NM201704170329000070WEGED67     000000010000000001765000000000011000000000000000000000000000000000000000000011000000000100000011722ACN    
01ABEV        ON        201705150582000070ABEVE82     000000010000000002212000000001029900000000000000000000000000000000000000001029900000000200000061122ACN    
01ABEV        ON        201705151430000070ABEVE73     000000010000000002312000000000071000000000000000000000000000000100000000000071100000000300000021122ACN    
01ABEV        ON        201705151708000070ABEVE53     000000010000000002337000000000000000000000000000000000000000223000000000000223000000000100000011121ACN    
01BBAS        ON      NM201705151104000070BBASE31     000000010000000003065000000000000000000000000004600000000000055400000000000060000000000100000012591ACN    
01BBDC    /EJ PN      N1201705150299000070BBDCE56     000000010000000002336000000000000000000000000220000000000000000000000000000220000000000100000016451ACN    
01BBDC    /EJ PN      N1201705150388000070BBDCE28     000000010000000002768000000000008470000000000000000000000000002530000000000011000000000200000026452ACN    
01BBDC    /EJ PN      N1201705150639000070BBDCE57     000000010000000002813000000000004290000000000000000000000000000000000000000004290000000100000016452ACN    
01BBDC    /EJ PN      N1201705150337000070BBDCE41     000000010000000002859000000000027500000000000220000000000000220000000000000467500000000200000026452ACN    
01BBDC    /EJ PN      N1201705150744000070BBDCE53     000000010000000002904000000000000000000000000113230000000000049130000000000162360000000300000046452ACN    
01BBDC    /EJ PN      N1201705150302000070BBDCE1      000000010000000002949000000000000000000000000000000000000000056000000000000056000000000200000026452ACN    
01BBDC    /EJ PN      N1201705150272000070BBDCE87     000000010000000002995000000000006160000000000000000000000000588500000000000594660000000300000046452ACN    
01BBDC    /EJ PN      N1201705150540000070BBDCE66     000000010000000003040000000000002200000000000000000000000000106260000000000108460000000100000026452ACN    
01BBDC    /EJ ON      N1201705150094000070BBDCE44     000000010000000003093000000000000000000000000000000000000000550000000000000550000000000100000016452ACN    
01BBDC    /EJ PN      N1201705150493000070BBDCE79     000000010000000003131000000000008400000000000000000000000000044800000000000053200000000200000036452ACN    
01BBDC    /EJ PN      N1201705150469000070BBDCE85     000000010000000003222000000000000000000000000000000000000000326040000000000326040000000200000026452ACN    
01BBDC    /EJ ON      N1201705150213000070BBDCE24     000000010000000003365000000000000000000000000444300000000000490700000000000935000000000200000036452ACN    
01BBDC    /EJ ON      N1201705150183000070BBDCE99     000000010000000003456000000000000000000000000000000000000002554090000000002554090000000200000046452ACN    
01BBDC    /EJ ON      N1201705150302000070BBDCE21     000000010000000003502000000000000000000000000000000000000000550000000000000550000000000100000036452ACN    
01BBDC    /EJ ON      N1201705150027000070BBDCE51     000000010000000003229000000000000000000000000063900000000000000010000000000063910000000100000026462ACN    
01BBDC    /EJ PN      N1201705150230000070BBDCE93     000000010000000003359000000000000000000000000147400000000000000000000000000147400000000100000016462ACN    
01BBSE        ON      NM201705151910000070BBSEE81     000000010000000003092000000000043400000000000000000000000000065600000000000109000000000100000071062ACN    
01BRFS        ON      NM201705151309000070BRFSE55     000000010000000005445000000000000000000000000000000000000001300000000000001300000000000100000011161ACN    
01BRFS        ON      NM201705151104000070BRFSE8      000000010000000005795000000000000000000000000010800000000000000000000000000010800000000100000011162ACN    
01BRFS        ON      NM201705151139000070BRFSE90     000000010000000005995000000000000000000000000000000000000000011200000000000011200000000100000021162ACN    
01BRFS        ON      NM201705150914000070BRFSE1      000000010000000006095000000000002000000000000000000000000000000000000000000002000000000100000011162ACN    
01PETR        PN        201708219555000070PETRH99     000000010000000001900000000000000800000000000000000000000000239500000000000240300000000200000061851ACN    
01PETR        PN        201708210140000070PETRH75     000000010000000001525000000000047000000000000000000000000000000000000000000047000000000100000021862ACN    
01SUZB        PNA     N1201708210841000070SUZBH32     000000010000000001275000000000006600000000000000000000000000000000000000000006600000000100000021232ACN    
01UGPA        ON      NM201708212259000070UGPAH89     000000010000000008820000000000000000000000000000000000000000003500000000000003500000000100000011371ACN    
01VALE        PNA     N1201708214219000070VALEH61     000000010000000001150000000000010000000000000028500000000000002600000000000041100000000300000041921ACN    
01VALE        PNA     N1201708214227000070VALEH85     000000010000000001525000000000139200000000000023400000000000001100000000000163700000000200000081922ACN    
01VALE        PNA     N1201708214456000070VALEH16     000000010000000001600000000000008000000000000028400000000000024200000000000060600000000200000111921ACN    
01VALE        PNA     N1201708214464000070VALEH17     000000010000000001700000000000003600000000000074400000000000021100000000000099100000000100000051921ACN    
01VALE        PNA     N1201708214928000070VALEH23     000000010000000001725000000000000000000000000000000000000000003500000000000003500000000100000011922ACN    
01VALE        PNA     N1201708214472000070VALEH18     000000010000000001800000000000001900000000000058100000000000003200000000000063200000000100000061921ACN    
01VALE        PNA     N1201708215061000070VALEH49     000000010000000001950000000000025000000000000000100000000000000000000000000025100000000300000021921ACN    
01VALE        PNA     N1201708215223000070VALEH29     000000010000000002025000000000000000000000000000000000000000015900000000000015900000000200000051922ACN    
01VALE        PNA     N1201708215312000070VALEH21     000000010000000002100000000000000000000000000000000000000000007000000000000007000000000100000011921ACN    
01ABEV        ON        201709182313000070ABEVI81     000000010000000002162000000000558000000000000000000000000000000000000000000558000000000100000031122ACN    
01ABEV        ON        201709182348000070ABEVI32     000000010000000002262000000000003000000000000000000000000000053500000000000056500000000200000031122ACN    
01ABEV        ON        201709182232000070ABEVI4      000000010000000002412000000000122500000000000000000000000000150000000000000272500000000100000031122ACN    
01ABEV        ON        201709180655000070ABEVI3      000000010000000002312000000004800000000000000000000000000004476200000000009276200000000200000081132ACN    
01ABEV        ON        201709180698000070ABEVI73     000000010000000002362000000000000000000000000000000000000000100000000000000100000000000100000011132ACN    
01BBAS        ON      NM201709180167000070BBASI5      000000010000000001538000000000000000000000000006300000000000000000000000000006300000000100000012611ACN    
01BBAS        ON      NM201709180175000070BBASI89     000000010000000001963000000000008300000000000006300000000000000000000000000014600000000200000022612ACN    
01BBAS        ON      NM201709180086000070BBASI78     000000010000000002813000000000000100000000000000000000000000003300000000000003400000000200000032622ACN    
01BBAS        ON      NM201709180051000070BBASI99     000000010000000002913000000000004400000000000000000000000000000000000000000004400000000100000012622ACN    
01BBDC    /EJ PN      N1201709180817000070BBDCI78     000000010000000002540000000000000000000000000000000000000000292380000000000292380000000200000116452ACN    
01BBDC    /EJ PN      N1201709181422000070BBDCI59     000000010000000002631000000000000000000000000000000000000000147400000000000147400000000100000016452ACN    
01BBDC    /EJ ON      N1201709180272000070BBDCI92     000000010000000002729000000000000000000000000000000000000000200090000000000200090000000100000046452ACN    
01BBDC    /EJ ON      N1201709180426000070BBDCI50     000000010000000002775000000000000000000000000000000000000000033660000000000033660000000100000016452ACN    
01BBDC    /EJ PN      N1201709180078000070BBDCI84     000000010000000002411000000000000000000000000003000000000000000000000000000003000000000100000016491ACN    
01BBDC    /EJ PN      N1201709180124000070BBDCI3      000000010000000002486000000000161200000000000000000000000000000000000000000161200000000100000016492ACN    
01BBDC    /EJ PN      N1201709180329000070BBDCI17     000000010000000002511000000000000000000000000000000000000000008000000000000008000000000100000016491ACN    
01BBDC    /EJ PN      N1201709180272000070BBDCI13     000000010000000002781000000000000000000000000000000000000000005000000000000005000000000100000016492ACN    
01BBDC    /EJ PN      N1201709180108000070BBDCI29     000000010000000002881000000000022500000000000003000000000000000100000000000025600000000300000036492ACN    
01BBDC    /EJ PN      N1201709180248000070BBDCI9      000000010000000002931000000000004100000000000000100000000000000000000000000004200000000100000026492ACN    
01BBDC    /EJ PN      N1201709180191000070BBDCI12     000000010000000002981000000000024100000000000000000000000000000100000000000024200000000200000036492ACN    
01BBDC    /EJ PN      N1201709180086000070BBDCI61     000000010000000003131000000000081100000000000000000000000000127000000000000208100000000200000036492ACN    
01BBDC    /EJ PN      N1201709180132000070BBDCI4      000000010000000003231000000000007500000000000000000000000000115000000000000122500000000300000036492ACN    
01BBDC    /EJ PN      N1201709180310000070BBDCI43     000000010000000003281000000000000000000000000000000000000000120000000000000120000000000100000026492ACN    
01BBDC    /EJ ON      N1201709180116000070BBDCI7      000000010000000003375000000000000000000000000000000000000000150100000000000150100000000100000026492ACN    
01BBDC    /EJ PN      N1201709180108000070BBDCI40     000000010000000003031000000000000000000000000008100000000000008000000000000016100000000100000026502ACN    
01BBDC    /EJ PN      N1201709180035000070BBDCI26     000000010000000003181000000000034100000000000000000000000000000100000000000034200000000200000036502ACN    
01BBDC    /EJ PN      N1201709180086000070BBDCI64     000000010000000003331000000000000000000000000000100000000000018000000000000018100000000100000036502ACN    
01BBDC    /EJ ON      N1201709180027000070BBDCI30     000000010000000003425000000000000000000000000000000000000000150000000000000150000000000100000016502ACN    
01BBDC    /EJ PN      N1201709180027000070BBDCI88     000000010000000003431000000000030000000000000000000000000000050000000000000080000000000100000036502ACN    
01BBDC    /EJ ON      N1201709180043000070BBDCI34     000000010000000003475000000000045000000000000000000000000000000100000000000045100000000100000026502ACN    
01BBDC    /EJ ON      N1201709180060000070BBDCI37     000000010000000003525000000000000000000000000000000000000000010200000000000010200000000100000036502ACN    
01ABEV        ON        201609190639000070ABEVI88     000000010000000001782000000000000400000000000631000000000000050500000000000681900000000400000541071ACN    
01ABEV        ON        201609190647000070ABEVI69     000000010000000001832000000000016800000000000000000000000000011200000000000028000000000100000081071ACN    
01ABEV        ON        201609190655000070ABEVI89     000000010000000001882000000000014400000000000061200000000000010700000000000086300000000300000131071ACN    
01ABEV        ON        201609191171000070ABEVI82     000000010000000002157000000000000000000000000259500000000000000000000000000259500000000200000021082ACN    
01ABEV        ON        201609191180000070ABEVI92     000000010000000002207000000000100000000000000300200000000000138800000000000539000000000700000031082ACN    
01ABEV        ON        201609191007000070ABEVI83     000000010000000002257000000000000000000000000151100000000000121900000000000273000000001700000041082ACN    
01ABEV        ON        201609191015000070ABEVI93     000000010000000002307000000000000000000000000672300000000000002600000000000674900000005200000021082ACN    
01ABEV        ON        201609190922000070ABEVI84     000000010000000002357000000000000000000000000100100000000000000000000000000100100000000200000011082ACN    
01ABEV        ON        201609190930000070ABEVI94     000000010000000002407000000000000000000000000085500000000000000000000000000085500000000100000011082ACN    
01ABEV        ON        201609190949000070ABEVI85     000000010000000002457000000000000000000000000010000000000000000000000000000010000000000100000011082ACN    
01ABEV        ON        201609190973000070ABEVI87     000000010000000002657000000000000000000000000000100000000000000000000000000000100000000100000011082ACN    
01ABEV        ON        201609190540000070ABEVI99     000000010000000001857000000000003500000000000000000000000000013000000000000016500000000100000051092ACN    
01ABEV        ON        201609198052000070ABEVI79     000000010000000001957000000000011700000000000372500000000000097700000000000481900000000700000431112ACN    
01ABEV        ON        201609191961000070ABEVI45     000000010000000001582000000000000000000000000000000000000000000100000000000000100000000100000011121ACN    
01ABEV        ON        201609191970000070ABEVI16     000000010000000001632000000000000000000000000000000000000000000100000000000000100000000100000011121ACN    
01ABEV        ON        201609191988000070ABEVI46     000000010000000001682000000000000000000000000000000000000000000100000000000000100000000100000011121ACN    
01ABEV        ON        201609191848000070ABEVI17     000000010000000001732000000000001500000000000631000000000000000000000000000632500000005200000021121ACN    
01ABEV        ON        201609191899000070ABEVI47     000000010000000001757000000000000000000000000426000000000000025100000000000451100000000600000041122ACN    
01ABEV        ON        201609191929000070ABEVI98     000000010000000001807000000000000300000000000045000000000000000100000000000045400000000200000051122ACN    
01ABEV        ON        201609191880000070ABEVI59     000000010000000001907000000000008100000000000250100000000000235800000000000494000000000300000161122ACN    
01ABEV        ON        201609191872000070ABEVI60     000000010000000002007000000000014500000000000625000000000001753200000000002392700000001500000691122ACN    
01ABEV        ON        201609191937000070ABEVI20     000000010000000002032000000000065500000000001015800000000000056200000000001137500000005300000281121ACN    
01ABEV        ON        201609190353000070ABEVI80     000000010000000002057000000000005400000000000013400000000000072600000000000091400000001000000121122ACN    
01ABEV        ON        201609191953000070ABEVI23     000000010000000002332000000000000000000000000050000000000000000000000000000050000000000400000021121ACN    
01ABEV        ON        201609190647000070ABEVI66     000000010000000001607000000000000000000000000000000000000000032600000000000032600000000200000021132ACN    
01ABEV  FM    ON        201609191856000070ABEVI19     000000010000000001932000000000135400000000001565200000000000118400000000001819000000002300001141121ACN    
01ABEV  FM    ON        201609191864000070ABEVI49     000000010000000001982000000000021700000000000458600000000000310100000000000790400000007200000481121ACN    
01ABEV  FM    ON        201609192003000070ABEVI21     000000010000000002132000000000000000000000000469000000000000157000000000000626000000002900000031121ACN    
01ABEV  FM    ON        201609192119000070ABEVI51     000000010000000002182000000000000000000000000000200000000000016000000000000016200000000200000011121ACN    
01ARZZ        ON      NM201609190043000070ARZZI80     000000010000000003083000000000000000000000000000000000000000035000000000000035000000000100000011212ACN    
01BBAS        ON      NM201609190744000070BBASI15     000000010000000001465000000000005400000000000000000000000000000000000000000005400000000100000012591ACN    
01BBAS        ON      NM201609190051000070BBASI65     000000010000000001490000000000000000000000000044000000000000000000000000000044000000000100000012592ACN    
01BBAS        ON      NM201609190728000070BBASI16     000000010000000001565000000000009800000000000000000000000000060000000000000069800000000300000042591ACN    
01BBAS        ON      NM201609191414000070BBASI47     000000010000000001715000000000303600000000000047500000000000091100000000000442200000000700000092591ACN    
01BBAS        ON      NM201609190698000070BBASI18     000000010000000001765000000000011000000000000012000000000000072500000000000095500000000800000252591ACN    
01BBAS        ON      NM201609190736000070BBASI48     000000010000000001815000000000018900000000000004000000000000040100000000000063000000000500000202591ACN    
01BBAS        ON      NM201609190264000070BBASI79     000000010000000001940000000000007400000000000001000000000000004200000000000012600000000200000112592ACN    
01BBAS        ON      NM201609191422000070BBASI20     000000010000000001965000000000287100000000000054700000000000132700000000000474500000001100000912591ACN    
01BBAS        ON      NM201609190752000070BBASI80     000000010000000001990000000000027200000000000088800000000000093800000000000209800000000600000212592ACN    
01BBAS        ON      NM201609190213000070BBASI50     000000010000000002015000000000054200000000000092200000000000063200000000000209600000001200000362591ACN    
01BBAS        ON      NM201609191074000070BBASI51     000000010000000002115000000000186000000000000146700000000000068000000000000400700000000700000422591ACN    
01BBAS        ON      NM201609190795000070BBASI22     000000010000000002165000000000152400000000000631100000000000175900000000000959400000005900001222591ACN    
01BBAS        ON      NM201609191317000070BBASI92     000000010000000002190000000000020600000000000000000000000000011400000000000032000000000500000172592ACN    
01BBAS        ON      NM201609190701000070BBASI72     000000010000000002240000000000061600000000000001400000000000124900000000000187900000000800000362592ACN    
01BBAS        ON      NM201609191325000070BBASI94     000000010000000002390000000000019400000000000010700000000000402300000000000432400000001200000392592ACN    
01BBAS        ON      NM201609190221000070BBASI66     000000010000000002590000000000049800000000000041600000000000364700000000000456100000002000000242592ACN    
01BBAS        ON      NM201609190213000070BBASI44     000000010000000001415000000000000000000000000000000000000000010000000000000010000000000300000022601ACN    
01BBAS        ON      NM201609190299000070BBASI86     000000010000000001615000000000001400000000000094000000000000010800000000000106200000000300000082601ACN    
01BBAS        ON      NM201609190230000070BBASI46     000000010000000001665000000000000000000000000001800000000000030000000000000031800000000200000022601ACN    
01BBAS        ON      NM201609190167000070BBASI77     000000010000000001690000000000004000000000000035200000000000002100000000000041300000000400000062602ACN    
01BBAS        ON      NM201609190302000070BBASI68     000000010000000001865000000000080700000000000044200000000000036400000000000161300000000300000382601ACN    
01BBAS        ON      NM201609190124000070BBASI69     000000010000000001890000000000000000000000000015600000000000017900000000000033500000000300000062602ACN    
01BBAS        ON      NM201609190175000070BBASI19     000000010000000001915000000000131400000000000007200000000000144000000000000282600000000700000482601ACN    
01BBAS        ON      NM201609190310000070BBASI90     000000010000000002065000000000196600000000000472400000000000360300000000001029300000001200000542601ACN    
01BBAS        ON      NM201609190329000070BBASI82     000000010000000002215000000000087400000000000000000000000000021400000000000108800000001000000262601ACN    
01BBAS        ON      NM201609190248000070BBASI23     000000010000000002315000000000386200000000000976200000000000625100000000001987500000033900002422601ACN    
01BBAS        ON      NM201609191147000070BBASI81     000000010000000002090000000000014700000000000000000000000000002600000000000017300000000200000042612ACN    
01BBAS        ON      NM201609191198000070BBASI93     000000010000000002290000000000028200000000000000000000000000005100000000000033300000000400000132612ACN    
01BBAS        ON      NM201609190701000070BBASI24     000000010000000002415000000000436100000000002111900000000000944500000000003492500000035000002112611ACN    
01BBAS        ON      NM201609190710000070BBASI57     000000010000000002715000000000109900000000000043700000000000115300000000000268900000001500000302611ACN    
01BBAS        ON      NM201609190728000070BBASI28     000000010000000002815000000000010600000000000044900000000000217000000000000272500000003000000202611ACN    
01BBAS        ON      NM201609190736000070BBASI29     000000010000000002915000000000000000000000000015700000000000412800000000000428500000002700000042611ACN    
01BBAS        ON      NM201609190744000070BBASI30     000000010000000003015000000000013200000000000237800000000000268100000000000519100000002700000072611ACN    
01BBAS  FM    ON      NM201609190272000070BBASI55     000000010000000002515000000000417000000000001011100000000000520300000000001948400000025800004242591ACN    
01BBAS  FM    ON      NM201609190922000070BBASI27     000000010000000002665000000000009200000000000141300000000000212100000000000362600000003900000302591ACN    
01BBAS  FM    ON      NM201609190337000070BBASI52     000000010000000002265000000000293200000000000127000000000000134500000000000554700000006100000882601ACN    
01BBAS  FM    ON      NM201609190345000070BBASI53     000000010000000002365000000000404500000000000230000000000000937900000000001572400000005400001012601ACN    
01BBAS  FM    ON      NM201609190760000070BBASI26     000000010000000002615000000000079100000000001513700000000000372600000000001965400000014700001272611ACN    
01BBDC    /EJ ON      N1201609190418000070BBDCI60     000000010000000003543000000000000000000000000000110000000000700000000000000700110000000400000036312ACN    
01BBDC    /EJ PN      N1201609190418000070BBDCI83     000000010000000001998000000000176000000000000010000000000000164540000000000350540000000400000066321ACN    
01BBDC    /EJ PN      N1201609190205000070BBDCI93     000000010000000002157000000000000000000000000082500000000000000000000000000082500000000100000016322ACN    
01BBDC    /EJ PN      N1201609190540000070BBDCI70     000000010000000002429000000000000000000000000002900000000000000500000000000003400000000200000026322ACN    
01BBDC    /EJ PN      N1201609190558000070BBDCI71     000000010000000002452000000000000000000000000071810000000000000930000000000072740000000300000026321ACN    
01BBDC    /EJ PN      N1201609190434000070BBDCI79     000000010000000002520000000000001000000000000165000000000000011200000000000177200000000400000056322ACN    
01BBDC    /EJ PN      N1201609190485000070BBDCI80     000000010000000003202000000000006500000000000122660000000004881070000000005010230000000700000366322ACN    
01BBDC    /EJ PN      N1201609190450000070BBDCI67     000000010000000003293000000000002100000000000050110000000000401000000000000453210000002000000166322ACN    
01BBDC    /EJ PN      N1201609190329000070BBDCI66     000000010000000002361000000000000000000000000000000000000000121430000000000121430000000200000046331ACN    
01BBDC    /EJ ON      N1201609190388000070BBDCI15     000000010000000002406000000000004400000000000000000000000000000000000000000004400000000100000016352ACN    
01BBDC    /EJ PN      N1201609190078000070BBDCI21     000000010000000002179000000000018300000000000000000000000000030000000000000048300000000200000046361ACN    
01BBDC    /EJ PN      N1201609190094000070BBDCI24     000000010000000002225000000000077810000000000000000000000000035630000000000113440000000300000036361ACN    
01BBDC    /EJ PN      N1201609190477000070BBDCI44     000000010000000002089000000000000260000000000000000000000000000000000000000000260000000100000016371ACN    
01BBDC    /EJ PN      N1201609190400000070BBDCI36     000000010000000002816000000000079690000000000016250000000000004610000000000100550000000600000186371ACN    
01BBDC    /EJ ON      N1201609190280000070BBDCI98     000000010000000002952000000000000000000000000161810000000000005500000000000167310000000100000026372ACN    
01BBDC    /EJ ON      N1201609190299000070BBDCI99     000000010000000002997000000000030800000000000033660000000000005580000000000070040000000400000076372ACN    
01BBDC    /EJ PN      N1201609190604000070BBDCI51     000000010000000001952000000000000000000000000000000000000000066000000000000066000000000100000016441ACN    
01BBDC    /EJ PN      N1201609190612000070BBDCI85     000000010000000002293000000000000000000000000107140000000000011000000000000118140000000300000036442ACN    
01BBDC    /EJ PN      N1201609190167000070BBDCI53     000000010000000002066000000000001000000000000000000000000000000010000000000001010000000200000026452ACN    
01BBDC    /EJ PN      N1201609191317000070BBDCI74     000000010000000002202000000000003670000000000000000000000000046920000000000050590000000200000026452ACN    
01BBDC    /EJ PN      N1201609190558000070BBDCI25     000000010000000002248000000000000000000000000011000000000000010200000000000021200000000400000046452ACN    
01BBDC    /EJ PN      N1201609190060000070BBDCI76     000000010000000002339000000000161450000000000042900000000000036660000000000241010000000400000106452ACN    
01BBDC    /EJ PN      N1201609190566000070BBDCI58     000000010000000002566000000000001210000000000080290000000000018700000000000100200000000300000166452ACN    
01BBDC    /EJ PN      N1201609198052000070BBDCI32     000000010000000002907000000000226760000000000051900000000000717630000000000996290000003900001016461ACN    
01BBDC    /EJ PN      N1201609190205000070BBDCI19     000000010000000001914000000000000000000000000000000000000000010100000000000010100000000100000016481ACN    
01BBDC    /EJ ON      N1201609190086000070BBDCI63     000000010000000002343000000000000000000000000435600000000000000000000000000435600000000100000016481ACN    
01BBDC    /EJ PN      N1201609190205000070BBDCI77     000000010000000002716000000000007000000000000016650000000000034950000000000058600000000500000076492ACN    
01BBDC    /EJ PN      N1201609190213000070BBDCI27     000000010000000002741000000000011700000000000133800000000000019300000000000164800000000700000226491ACN    
01BBDC    /EJ PN      N1201609190019000070BBDCI41     000000010000000002114000000000000000000000000000030000000000035870000000000035900000000300000056512ACN    
01BBDC    /EJ PN      N1201609190116000070BBDCI45     000000010000000002591000000000002600000000000003300000000000022000000000000027900000000400000126511ACN    
01BBDC    /EJ PN      N1201609190159000070BBDCI20     000000010000000002641000000000000000000000000000000000000000078300000000000078300000000300000116521ACN    
01BBDC    /EJ ON      N1201609190086000070BBDCI42     000000010000000002927000000000001700000000000000000000000000000000000000000001700000000100000016521ACN    
01BBDC  FM/EJ PN      N1201609190485000070BBDCI1      000000010000000002770000000000082300000000000160660000000000099030000000000341990000001400000296371ACN    
01BBDC  FM/EJ PN      N1201609190043000070BBDCI68     000000010000000002866000000000272600000000000331500000000000563400000000001167500000001300000556511ACN    
01BBDC  FM/EJ PN      N1201609190299000070BBDCI46     000000010000000003007000000000263900000000000553800000000000422200000000001239900000004300001196511ACN    
01BBDC  FM/EJ PN      N1201609190540000070BBDCI52     000000010000000003107000000000040400000000000248100000000000047900000000000336400000003000000426511ACN    
01BBDC  FM/EJ PN      N1201609190558000070BBDCI55     000000010000000003157000000000044600000000000192100000000000163300000000000400000000002300000406511ACN    
01BBSE        ON      NM201609191660000070BBSEI78     000000010000000002596000000000000000000000000000200000000000000000000000000000200000000100000011041ACN    
01BBSE        ON      NM201609191040000070BBSEI72     000000010000000003021000000000001600000000000000000000000000013700000000000015300000000200000081042ACN    
01BBSE        ON      NM201609191562000070BBSEI75     000000010000000003321000000000000000000000000000000000000000002700000000000002700000000100000011042ACN    
01BBSE        ON      NM201609191716000070BBSEI26     000000010000000002546000000000000000000000000000400000000000000000000000000000400000000200000011061ACN    
01BBSE        ON      NM201609191783000070BBSEI27     000000010000000002646000000000000000000000000001000000000000005000000000000006000000000200000021061ACN    
01BBSE        ON      NM201609191953000070BBSEI57     000000010000000002696000000000000000000000000001800000000000013000000000000014800000000100000021061ACN    
01BBSE        ON      NM201609192151000070BBSEI28     000000010000000002746000000000000000000000000001000000000000000000000000000001000000000100000011061ACN    
01BBSE        ON      NM201609192216000070BBSEI58     000000010000000002796000000000000200000000000020000000000000000300000000000020500000000200000041061ACN    
01BBSE        ON      NM201609193042000070BBSEI69     000000010000000002821000000000001800000000000000000000000000011000000000000012800000000100000021062ACN    
01BBSE        ON      NM201609191724000070BBSEI29     000000010000000002846000000000014100000000000001500000000000125100000000000140700000000500000141061ACN    
01BBSE        ON      NM201609192909000070BBSEI9      000000010000000002871000000000025800000000000000100000000000001000000000000026900000000100000091062ACN    
01BBSE        ON      NM201609191325000070BBSEI70     000000010000000002921000000000002500000000000000200000000000010000000000000012700000000200000041062ACN    
01BBSE        ON      NM201609191309000070BBSEI30     000000010000000002946000000000093900000000000100100000000000028500000000000222500000000800000501061ACN    
01BBSE        ON      NM201609192160000070BBSEI31     000000010000000003046000000000089200000000000000000000000000023500000000000112700000001200000251061ACN    
01BBSE        ON      NM201609192984000070BBSEI71     000000010000000003071000000000013800000000000000000000000000013400000000000027200000000300000071062ACN    
01BBSE        ON      NM201609192917000070BBSEI12     000000010000000003121000000000000000000000000000000000000000063300000000000063300000000300000041062ACN    
01BBSE        ON      NM201609192178000070BBSEI32     000000010000000003146000000000025200000000000090000000000000212100000000000327300000001000000211061ACN    
01BBSE        ON      NM201609192062000070BBSEI82     000000010000000003171000000000003000000000000017300000000000000000000000000020300000000100000051062ACN    
01BBSE        ON      NM201609191333000070BBSEI33     000000010000000003246000000000000100000000000019800000000000157500000000000177400000000900000061061ACN    
01BBSE  FM    ON      NM201609191961000070BBSEI59     000000010000000002896000000000030300000000000060500000000000047800000000000138600000000700000171061ACN    
01BBSE  FM    ON      NM201609192224000070BBSEI80     000000010000000002996000000000055200000000000097300000000000011100000000000163600000000500000241061ACN    
01BBSE  FM    ON      NM201609192232000070BBSEI61     000000010000000003096000000000003300000000000241400000000000005400000000000250100000000700000061061ACN    
01BBSE  FM    ON      NM201609192240000070BBSEI2      000000010000000003196000000000000300000000000050000000000000176200000000000226500000000300000071061ACN    
01BBSE  FM    ON      NM201609191317000070BBSEI53     000000010000000003296000000000004200000000000201600000000000000000000000000205800000000600000031061ACN    
01BRAP        PN      N1201609190159000070BRAPI46     000000010000000001490000000000000000000000000024800000000000000100000000000024900000000100000021282ACN    
01BRAP        PN      N1201609193042000070BRAPI51     000000010000000001165000000000000000000000000000000000000000006700000000000006700000000100000011291ACN    
01BRFS        ON      NM201609192755000070BRFSI96     000000010000000008279000000000040000000000000000100000000000000000000000000040100000000200000021132ACN    
01BRFS        ON      NM201609190957000070BRFSI63     000000010000000006179000000000000000000000000000000000000000000200000000000000200000000100000011142ACN    
01BRFS        ON      NM201609190973000070BRFSI8      000000010000000008679000000000000000000000000000100000000000000000000000000000100000000100000011142ACN    
01BRFS        ON      NM201609191660000070BRFSI45     000000010000000004479000000000000300000000000000000000000000000000000000000000300000000100000021161ACN    
01BRFS        ON      NM201609191678000070BRFSI46     000000010000000004579000000000000100000000000000000000000000000000000000000000100000000100000011161ACN    
01BRFS        ON      NM201609190809000070BRFSI49     000000010000000004879000000000000000000000000000000000000000200000000000000200000000000100000011161ACN    
01BRFS        ON      NM201609191872000070BRFSI19     000000010000000004929000000000000800000000000000000000000000000600000000000001400000000100000021161ACN    
01BRFS        ON      NM201609192240000070BRFSI34     000000010000000004979000000000000000000000000200000000000000100000000000000300000000000100000031162ACN    
01BRFS        ON      NM201609191708000070BRFSI50     000000010000000005029000000000000000000000000000000000000000006400000000000006400000000100000031161ACN    
01BRFS        ON      NM201609191716000070BRFSI51     000000010000000005129000000000016100000000000128900000000000311000000000000456000000000300000131161ACN    
01BRFS        ON      NM201609191724000070BRFSI52     000000010000000005229000000000000900000000000000000000000000011800000000000012700000000300000121161ACN    
01BRFS        ON      NM201609191430000070BRFSI23     000000010000000005279000000000009500000000000300000000000000002700000000000312200000000300000051162ACN    
01BRFS        ON      NM201609191538000070BRFSI28     000000010000000005779000000000000200000000000000000000000000004400000000000004600000000300000041162ACN    
01BRFS        ON      NM201609191783000070BRFSI58     000000010000000005829000000000010500000000000000000000000000038300000000000048800000000200000241161ACN    
01BRFS        ON      NM201609190264000070BRFSI4      000000010000000005479000000000000600000000000030000000000000607500000000000638100000000400000081172ACN    
01BRFS        ON      NM201609190701000070BRFSI29     000000010000000005879000000000000100000000000000000000000000000000000000000000100000000100000011172ACN    
01BRFS  FM    ON      NM201609191732000070BRFSI53     000000010000000005329000000000006200000000000600700000000000004700000000000611600000000300000091161ACN    
01BRFS  FM    ON      NM201609191740000070BRFSI54     000000010000000005429000000000023500000000000250000000000000006800000000000280300000000800000271161ACN    
01BRFS  FM    ON      NM201609190817000070BRFSI5      000000010000000005529000000000010700000000000000000000000000106200000000000116900000000700000161161ACN    
01BRFS  FM    ON      NM201609191767000070BRFSI56     000000010000000005629000000000011500000000000008400000000000008400000000000028300000000700000151161ACN    
01BRFS  FM    ON      NM201609191775000070BRFSI57     000000010000000005729000000000001800000000000001200000000000038800000000000041800000000400000081161ACN    
01BRIN        ON      NM201609190175000070BRINI64     000000010000000002425000000000000000000000000000000000000000035000000000000035000000000100000011112ACN    
01BRIN        ON      NM201609190094000070BRINI55     000000010000000002550000000000000000000000000000000000000000035000000000000035000000000100000011111ACN    
01BRKM        PNA     N1201609191309000070BRKMI53     000000010000000002224000000000000000000000000000000000000000025100000000000025100000000200000021121ACN    
01BRKM        PNA     N1201609190175000070BRKMI50     000000010000000002074000000000000000000000000000000000000000521600000000000521600000000500000011131ACN    
01BRKM        PNA     N1201609190183000070BRKMI21     000000010000000002124000000000000000000000000000000000000000230000000000000230000000000200000011131ACN    
01BRML        ON      NM201609190507000070BRMLI61     000000010000000001177000000000000000000000000001900000000000000000000000000001900000000100000011091ACN    
01BRML        ON      NM201609190922000070BRMLI62     000000010000000001252000000000000000000000000000000000000000004000000000000004000000000100000011092ACN    
01BRML        ON      NM201609190582000070BRMLI84     000000010000000001452000000000000000000000000000000000000000050900000000000050900000000100000021092ACN    
01BRML        ON      NM201609190329000070BRMLI44     000000010000000001477000000000000000000000000000000000000000000100000000000000100000000100000011091ACN    
01BRML  FM    ON      NM201609190515000070BRMLI52     000000010000000001227000000000005400000000000000000000000000000100000000000005500000000100000021091ACN    
01BRML  FM    ON      NM201609190299000070BRMLI42     000000010000000001277000000000003700000000000086580000000000014320000000000104600000000200000021091ACN    
01BRML  FM    ON      NM201609190302000070BRMLI13     000000010000000001327000000000001100000000000002400000000000002500000000000006000000000400000061091ACN    
01BRML  FM    ON      NM201609190310000070BRMLI43     000000010000000001377000000000001000000000000023800000000000000200000000000025000000000100000061091ACN    
01BRML  FM    ON      NM201609190523000070BRMLI54     000000010000000001427000000000000000000000000007700000000000455000000000000462700000000300000031091ACN    
01BRPR        ON      NM201609190140000070BRPRI83     000000010000000000830000000000000000000000000000000000000000121000000000000121000000000100000021162ACN    
01BTOW        ON      NM201609191775000070BTOWI14     000000010000000001400000000000000000000000000000000000000000006000000000000006000000000100000011071ACN    
01BVMF        ON      NM201609190345000070BVMFI1      000000010000000001007000000000000300000000000100000000000000000000000000000100300000000200000021362ACN    
01BVMF        ON      NM201609190353000070BVMFI2      000000010000000001157000000000000000000000000200000000000000000000000000000200000000000100000011362ACN    
01BVMF        ON      NM201609191457000070BVMFI12     000000010000000001182000000000756600000000000000000000000000000000000000000756600000000300000031361ACN    
01BVMF        ON      NM201609191465000070BVMFI44     000000010000000001432000000000000000000000000000000000000000011000000000000011000000000100000011361ACN    
01BVMF        ON      NM201609190990000070BVMFI65     000000010000000001507000000000005600000000000050100000000000000000000000000055700000000300000031362ACN    
01BVMF        ON      NM201609191473000070BVMFI66     000000010000000001657000000000002100000000000001500000000000000000000000000003600000000200000021362ACN    
01BVMF        ON      NM201609192100000070BVMFI89     000000010000000001957000000000000200000000000000000000000000005500000000000005700000000200000031362ACN    
01BVMF        ON      NM201609190051000070BVMFI62     000000010000000001232000000000000400000000000000000000000000000000000000000000400000000100000011371ACN    
01BVMF        ON      NM201609190078000070BVMFI43     000000010000000001382000000000050000000000000000300000000000000000000000000050300000000200000021371ACN    
01BVMF        ON      NM201609190434000070BVMFI64     000000010000000001407000000000000000000000000000100000000000000000000000000000100000000100000011372ACN    
01BVMF        ON      NM201609190086000070BVMFI4      000000010000000001482000000000000000000000000000500000000000060000000000000060500000000200000021371ACN    
01BVMF        ON      NM201609190094000070BVMFI15     000000010000000001532000000000000000000000000000000000000000025000000000000025000000000400000011371ACN    
01BVMF        ON      NM201609190108000070BVMFI45     000000010000000001582000000000000000000000000000000000000000032000000000000032000000000200000021371ACN    
01BVMF        ON      NM201609190116000070BVMFI16     000000010000000001632000000000010100000000000000000000000000000000000000000010100000000100000021371ACN    
01BVMF        ON      NM201609190124000070BVMFI46     000000010000000001682000000000005400000000000043000000000000000000000000000048400000000200000041371ACN    
01BVMF        ON      NM201609190973000070BVMFI68     000000010000000001807000000000026100000000000000400000000000001000000000000027500000000400000081372ACN    
01BVMF        ON      NM201609191341000070BVMFI78     000000010000000001857000000000049300000000000029000000000000055300000000000133600000000800000121372ACN    
01BVMF        ON      NM201609191333000070BVMFI79     000000010000000001907000000000012600000000000004500000000000000600000000000017700000000700000061372ACN    
01BVMF        ON      NM201609190183000070BVMFI49     000000010000000001982000000000229400000000000096400000000001572300000000001898100000004900000471371ACN    
01BVMF        ON      NM201609190892000070BVMFI80     000000010000000002007000000000006400000000000020900000000000000500000000000027800000000600000051372ACN    
01BVMF        ON      NM201609190191000070BVMFI20     000000010000000002032000000000168100000000000407700000000000491000000000001066800000011400001861371ACN    
01BVMF        ON      NM201609190205000070BVMFI50     000000010000000002082000000000003900000000000275200000000000202000000000000481100000004300000201371ACN    
01BVMF        ON      NM201609190213000070BVMFI21     000000010000000002132000000000071700000000000123300000000000071200000000000266200000004100000311371ACN    
01BVMF        ON      NM201609190949000070BVMFI71     000000010000000002157000000000000000000000000000000000000000050000000000000050000000000100000011372ACN    
01BVMF        ON      NM201609190221000070BVMFI51     000000010000000002182000000000000400000000000031800000000000000000000000000032200000001100000051371ACN    
01BVMF        ON      NM201609190230000070BVMFI22     000000010000000002232000000000000000000000000024700000000000183300000000000208000000002300000111371ACN    
01BVMF        ON      NM201609190248000070BVMFI52     000000010000000002282000000000001800000000000000000000000000015100000000000016900000000500000031371ACN    
01BVMF        ON      NM201609190256000070BVMFI23     000000010000000002332000000000000000000000000014500000000000137500000000000152000000002300000041371ACN    
01BVMF        ON      NM201609190264000070BVMFI53     000000010000000002382000000000000000000000000000000000000000005100000000000005100000000300000011371ACN    
01BVMF        ON      NM201609190272000070BVMFI24     000000010000000002432000000000000000000000000000100000000000187500000000000187600000000800000041371ACN    
01BVMF  FM    ON      NM201609190132000070BVMFI17     000000010000000001732000000000008900000000000731900000000000130400000000000871200000001200000201371ACN    
01BVMF  FM    ON      NM201609190140000070BVMFI47     000000010000000001782000000000315900000000000045800000000000177600000000000539300000001900000231371ACN    
01BVMF  FM    ON      NM201609190159000070BVMFI18     000000010000000001832000000000115600000000000424700000000000030100000000000570400000007100000591371ACN    
01BVMF  FM    ON      NM201609190167000070BVMFI48     000000010000000001882000000000098300000000000161600000000000349200000000000609100000005400000721371ACN    
01BVMF  FM    ON      NM201609190175000070BVMFI19     000000010000000001932000000000173900000000002395400000000000686000000000003255300000014800000901371ACN    
01CCRO        ON      NM201609190639000070CCROI94     000000010000000001368000000000000000000000000000000000000000002000000000000002000000000100000011261ACN    
01CCRO        ON      NM201609191112000070CCROI13     000000010000000001318000000000000000000000000000000000000000041100000000000041100000000100000011291ACN    
01CCRO        ON      NM201609191180000070CCROI17     000000010000000001718000000000000400000000000000000000000000018100000000000018500000000100000031291ACN    
01CCRO        ON      NM201609191635000070CCROI78     000000010000000001843000000000002000000000000000000000000000047600000000000049600000000200000071292ACN    
01CCRO  FM    ON      NM201609191198000070CCROI47     000000010000000001768000000000039900000000000125000000000000000100000000000165000000000200000081291ACN    
01CCRO  FM    ON      NM201609191201000070CCROI18     000000010000000001818000000000006800000000000450000000000000001000000000000457800000000200000051291ACN    
01CCRO  FM    ON      NM201609191210000070CCROI48     000000010000000001868000000000000000000000000175000000000000015000000000000190000000000300000021291ACN    
01CCRO  FM    ON      NM201609191228000070CCROI19     000000010000000001918000000000001500000000000400000000000000053100000000000454600000000400000051291ACN    
01CESP        PNB     N1201609190582000070CESPI45     000000010000000001541000000000007500000000000000000000000000001900000000000009400000000400000061221ACN    
01CIEL        ON      NM201609191279000070CIELI94     000000010000000003698000000000001990000000000029940000000000017070000000000049000000000500000101171ACN    
01CIEL        ON      NM201609191287000070CIELI85     000000010000000004588000000000000000000000000015000000000000003480000000000018480000000300000021172ACN    
01CIEL        ON      NM201609192577000070CIELI73     000000010000000002803000000000001000000000000000000000000000000000000000000001000000000100000011182ACN    
01CIEL        ON      NM201609192585000070CIELI92     000000010000000003553000000000009100000000000000000000000000002500000000000011600000000100000051182ACN    
01CIEL        ON      NM201609190868000070CIELI24     000000010000000002428000000000000000000000000000000000000000545000000000000545000000000100000011201ACN    
01CIEL        ON      NM201609190884000070CIELI26     000000010000000002628000000000000900000000000000000000000000000000000000000000900000000100000021201ACN    
01CIEL        ON      NM201609191163000070CIELI76     000000010000000002653000000000000000000000000415300000000000000000000000000415300000000200000011202ACN    
01CIEL        ON      NM201609190736000070CIELI89     000000010000000002953000000000000000000000000000000000000000005100000000000005100000000100000011202ACN    
01CIEL        ON      NM201609191228000070CIELI80     000000010000000003003000000000000000000000000000400000000000000000000000000000400000000100000011202ACN    
01CIEL        ON      NM201609190922000070CIELI30     000000010000000003028000000000000000000000000000100000000000000000000000000000100000000100000011201ACN    
01CIEL        ON      NM201609191074000070CIELI60     000000010000000003078000000000000000000000000000100000000000000000000000000000100000000100000011201ACN    
01CIEL        ON      NM201609191988000070CIELI71     000000010000000003103000000000000000000000000000000000000000004000000000000004000000000100000011202ACN    
01CIEL        ON      NM201609190930000070CIELI31     000000010000000003128000000000000600000000000001100000000000000000000000000001700000000200000021201ACN    
01CIEL        ON      NM201609190949000070CIELI32     000000010000000003228000000000000000000000000002000000000000000000000000000002000000000100000011201ACN    
01CIEL        ON      NM201609190957000070CIELI33     000000010000000003328000000000006200000000000002500000000000003400000000000012100000000400000051201ACN    
01CIEL        ON      NM201609191627000070CIELI13     000000010000000003353000000000012600000000000000300000000000000300000000000013200000000100000071202ACN    
01CIEL        ON      NM201609191708000070CIELI10     000000010000000003403000000000014700000000000000200000000000000000000000000014900000000200000041202ACN    
01CIEL        ON      NM201609190965000070CIELI34     000000010000000003428000000000017700000000000233800000000000005600000000000257100000000400000181201ACN    
01CIEL        ON      NM201609190361000070CIELI84     000000010000000003453000000000007400000000000000500000000000040000000000000047900000000300000071202ACN    
01CIEL        ON      NM201609190973000070CIELI35     000000010000000003528000000000085700000000000000100000000000024900000000000110700000000800000321201ACN    
01CIEL        ON      NM201609191635000070CIELI6      000000010000000003603000000000000000000000000000000000000000001000000000000001000000000100000011202ACN    
01CIEL        ON      NM201609190981000070CIELI36     000000010000000003628000000000040400000000000008800000000000047900000000000097100000001600000221201ACN    
01CIEL        ON      NM201609191171000070CIELI86     000000010000000003653000000000040300000000000415300000000000018600000000000474200000000500000081202ACN    
01CIEL        ON      NM201609190990000070CIELI37     000000010000000003748000000000005500000000000317600000000000002400000000000325500000001600000101201ACN    
01CIEL        ON      NM201609191139000070CIELI7      000000010000000003798000000000000200000000000250300000000000001300000000000251800000000200000051201ACN    
01CIEL        ON      NM201609190370000070CIELI88     000000010000000003823000000000000700000000000003200000000000055100000000000059000000000200000071202ACN    
01CIEL        ON      NM201609191007000070CIELI38     000000010000000003848000000000000000000000000110000000000000053500000000000163500000000400000051201ACN    
01CIEL        ON      NM201609191643000070CIELI18     000000010000000003873000000000000000000000000000000000000000018000000000000018000000000100000011202ACN    
01CIEL        ON      NM201609191147000070CIELI8      000000010000000003898000000000000800000000000039500000000000000000000000000040300000000200000031201ACN    
01CIEL        ON      NM201609191619000070CIELI9      000000010000000003973000000000000400000000000000000000000000120000000000000120400000000200000031202ACN    
01CIEL        ON      NM201609191716000070CIELI11     000000010000000003998000000000000000000000000001400000000000035000000000000036400000000200000021201ACN    
01CIEL        ON      NM201609191023000070CIELI40     000000010000000004048000000000001500000000000240000000000000000300000000000241800000000300000061201ACN    
01CIEL  FM    ON      NM201609191090000070CIELI2      000000010000000003278000000000000300000000000000000000000000001000000000000001300000000100000021201ACN    
01CIEL  FM    ON      NM201609191104000070CIELI3      000000010000000003378000000000003400000000000014800000000000005000000000000023200000000700000081201ACN    
01CIEL  FM    ON      NM201609191112000070CIELI4      000000010000000003478000000000007600000000000000400000000000005600000000000013600000000200000101201ACN    
01CIEL  FM    ON      NM201609191120000070CIELI5      000000010000000003578000000000004000000000000000000000000000012700000000000016700000000300000091201ACN    
01CMIG        PN      N1201609190639000070CMIGI80     000000010000000000800000000000000000000000000001300000000000000000000000000001300000000200000012171ACN    
01CMIG        PN      N1201609190647000070CMIGI2      000000010000000000820000000000000000000000000007200000000000006700000000000013900000000300000042171ACN    
01CMIG        PN      N1201609190655000070CMIGI94     000000010000000000840000000000000000000000000000300000000000000000000000000000300000000100000012171ACN    
01CMIG        PN      N1201609190671000070CMIGI98     000000010000000000880000000000009200000000000002000000000000000000000000000011200000000100000052171ACN    
01CMIG        PN      N1201609190990000070CMIGI9      000000010000000000900000000000019600000000000018100000000000014100000000000051800000001300000102171ACN    
01CMIG        PN      N1201609191040000070CMIGI92     000000010000000000920000000000055000000000000015900000000000011200000000000082100000000600000052171ACN    
01CMIG  FM    PN      N1201609191066000070CMIGI24     000000010000000000940000000000080000000000000000000000000000036300000000000116300000000100000052171ACN    
01CMIG  FM    PN      N1201609191074000070CMIGI26     000000010000000000960000000000022400000000000000000000000000034700000000000057100000001200000112171ACN    
01CMIG  FM    PN      N1201609191082000070CMIGI28     000000010000000000980000000000078700000000000000000000000000009200000000000087900000000400000142171ACN    
01CMIG  FM    PN      N1201609191090000070CMIGI10     000000010000000001000000000000027600000000000058200000000000022900000000000108700000002300000232171ACN    
01CMIG  FM    PN      N1201609191104000070CMIGI1      000000010000000001050000000000069000000000000002000000000000001900000000000072900000001400000072171ACN    
01CPLE        PNB     N1201609190078000070CPLEI3      000000010000000003011000000000000000000000000000000000000000110000000000000110000000000100000011302ACN    
01CSAN        ON      NM201609192429000070CSANI77     000000010000000002634000000000000000000000000000000000000000004100000000000004100000000100000011132ACN    
01CSAN        ON      NM201609190426000070CSANI3      000000010000000003359000000000000000000000000003500000000000002600000000000006100000000100000011151ACN    
01CSAN        ON      NM201609190434000070CSANI34     000000010000000003409000000000000000000000000004600000000000000000000000000004600000001200000011151ACN    
01CSAN        ON      NM201609190728000070CSANI64     000000010000000003459000000000000000000000000000100000000000015900000000000016000000000100000011151ACN    
01CSAN        ON      NM201609190736000070CSANI5      000000010000000003559000000000010000000000000000000000000000007600000000000017600000000100000021151ACN    
01CSAN        ON      NM201609190140000070CSANI38     000000010000000003809000000000002600000000000035800000000000505600000000000544000000000300000101151ACN    
01CSAN  FM    ON      NM201609190744000070CSANI6      000000010000000003659000000000004100000000000004900000000000003700000000000012700000000100000041151ACN    
01CSAN  FM    ON      NM201609191104000070CSANI7      000000010000000003759000000000005000000000000000000000000000000000000000000005000000000200000011151ACN    
01CSAN  FM    ON      NM201609191112000070CSANI8      000000010000000003859000000000001100000000000000000000000000000000000000000001100000000100000021151ACN    
01CSAN  FM    ON      NM201609191511000070CSANI40     000000010000000004009000000000000000000000000000000000000000024000000000000024000000000100000021151ACN    
01CSAN  FM    ON      NM201609191503000070CSANI10     000000010000000004059000000000000000000000000003400000000000000000000000000003400000000100000011151ACN    
01CSNA        ON        201609191767000070CSNAI12     000000010000000001160000000000061900000000000121800000000000135400000000000319100000002600000202451ACN    
01CSNA        ON        201609196815000070CSNAI83     000000010000000000835000000000005400000000000000000000000000000100000000000005500000000300000032471ACN    
01CSNA        ON        201609196823000070CSNAI85     000000010000000000855000000000004100000000000003900000000000001700000000000009700000000100000052471ACN    
01CSNA        ON        201609196831000070CSNAI87     000000010000000000875000000000006700000000000000000000000000014900000000000021600000000300000092471ACN    
01CSNA        ON        201609196840000070CSNAI89     000000010000000000895000000000006900000000000003800000000000006400000000000017100000000100000102471ACN    
01CSNA        ON        201609196858000070CSNAI91     000000010000000000915000000000009500000000000001700000000000006200000000000017400000000300000102471ACN    
01CSNA        ON        201609196688000070CSNAI96     000000010000000000965000000000002200000000000031100000000000128100000000000161400000000500000072472ACN    
01CSNA        ON        201609196343000070CSNAI10     000000010000000001010000000000016900000000000022800000000000066800000000000106500000001600000332471ACN    
01CSNA        ON        201609196904000070CSNAI11     000000010000000001110000000000056000000000000000000000000000051200000000000107200000001400000172471ACN    
01CSNA        ON        201609196912000070CSNAI2      000000010000000001210000000000002300000000000109800000000000002100000000000114200000000700000072471ACN    
01CSNA        ON        201609196920000070CSNAI42     000000010000000001260000000000688000000000000007200000000000020000000000000715200000001800000042471ACN    
01CSNA        ON        201609196939000070CSNAI13     000000010000000001310000000000392100000000000033900000000000013900000000000439900000001500000102471ACN    
01CSNA        ON        201609196947000070CSNAI43     000000010000000001360000000000000000000000000004800000000000205400000000000210200000000500000042471ACN    
01CSNA        ON        201609196955000070CSNAI14     000000010000000001410000000000002000000000000000000000000000402000000000000404000000000400000032471ACN    
01CSNA        ON        201609196963000070CSNAI44     000000010000000001460000000000004300000000000000000000000000000100000000000004400000000100000022471ACN    
01CSNA  FM    ON        201609196866000070CSNAI93     000000010000000000935000000000015000000000000004700000000000002000000000000021700000000300000042471ACN    
01CSNA  FM    ON        201609196670000070CSNAI95     000000010000000000955000000000005900000000000002000000000000009100000000000017000000000500000072471ACN    
01CSNA  FM    ON        201609196874000070CSNAI97     000000010000000000975000000000002000000000000000000000000000022100000000000024100000000300000042471ACN    
01CSNA  FM    ON        201609196882000070CSNAI99     000000010000000000995000000000002000000000000008800000000000025000000000000035800000000400000032471ACN    
01CSNA  FM    ON        201609196890000070CSNAI40     000000010000000001060000000000013800000000000176100000000000036800000000000226700000001400000172471ACN    
01CTIP        ON      NM201609190132000070CTIPI70     000000010000000003877000000000000000000000000000000000000000183200000000000183200000000100000011342ACN    
01CTIP        ON      NM201609190353000070CTIPI78     000000010000000003677000000000000000000000000000000000000000009800000000000009800000000100000011352ACN    
01CTIP        ON      NM201609190531000070CTIPI12     000000010000000004127000000000000000000000000000000000000000012500000000000012500000000100000011372ACN    
01CYRE        ON      NM201609190426000070CYREI98     000000010000000000980000000000021000000000000000000000000000000000000000000021000000000100000041281ACN    
01CYRE        ON      NM201609190493000070CYREI13     000000010000000001300000000000000000000000000000400000000000000000000000000000400000000200000011281ACN    
01CYRE  FM    ON      NM201609190434000070CYREI10     000000010000000001000000000000005400000000000000000000000000000000000000000005400000000100000031281ACN    
01CYRE  FM    ON      NM201609190442000070CYREI40     000000010000000001050000000000003000000000000005700000000000217400000000000226100000001200000101281ACN    
01CYRE  FM    ON      NM201609190450000070CYREI11     000000010000000001100000000000000000000000000124500000000000040000000000000164500000001500000031281ACN    
01CYRE  FM    ON      NM201609190469000070CYREI41     000000010000000001150000000000001500000000000000000000000000000000000000000001500000000100000011281ACN    
01CYRE  FM    ON      NM201609190477000070CYREI12     000000010000000001200000000000000000000000000002000000000000000000000000000002000000000100000011281ACN    
01ECOR        ON      NM201609191147000070ECORI89     000000010000000000890000000000000000000000000000000000000000050100000000000050100000000300000021112ACN    
01EGIE        ON      NM201609190060000070EGIEI38     000000010000000003769000000000000000000000000000000000000000020000000000000020000000000100000011001ACN    
01ELET        PNB     N1201609190337000070ELETI62     000000010000000001225000000000000000000000000000000000000000003900000000000003900000000100000010682ACN    
01ELET        PNB     N1201609190531000070ELETI53     000000010000000002350000000000000200000000000000000000000000300000000000000300200000000200000020681ACN    
01ELET        PNB     N1201609190540000070ELETI55     000000010000000002550000000000000000000000000000000000000000100100000000000100100000000200000020681ACN    
01ELPL        PN      N2201609192720000070ELPLI96     000000010000000000934000000000000000000000000000000000000000029400000000000029400000000500000011191ACN    
01EMBR        ON      NM201609190086000070EMBRI44     000000010000000001497000000000005000000000000004000000000000002100000000000011100000000600000041781ACN    
01EMBR        ON      NM201609190094000070EMBRI66     000000010000000001622000000000000000000000000004000000000000000000000000000004000000000100000011782ACN    
01ENBR        ON      NM201609190027000070ENBRI63     000000010000000001308000000000000000000000000000000000000000250000000000000250000000000100000021222ACN    
01EQTL        ON      NM201609190450000070EQTLI93     000000010000000004205000000000000000000000000000000000000000142000000000000142000000000100000011171ACN    
01EQTL        ON      NM201609190116000070EQTLI51     000000010000000005105000000000028600000000000000000000000000130300000000000158900000000100000031191ACN    
